:100000000C945D000C9437040C9410040C9485003F
:100010000C9485000C9485000C9485000C9485004C
:100020000C9485000C9485000C9485000C9485003C
:100030000C9485000C9485000C9485000C9485002C
:100040000C94C6030C9485000C9494030C946E03DA
:100050000C9485000C9485000C9485000C9485000C
:100060000C9485000C9485000000000024002700FB
:100070002A0000000000250028002B0004040404CE
:100080000404040402020202020203030303030342
:10009000010204081020408001020408102001021F
:1000A00004081020000000080002010000030407FB
:1000B00000000000000000002B0811241FBECFEF3D
:1000C000D8E0DEBFCDBF11E0A0E0B1E0E4EFF5E1A4
:1000D00002C005900D92A034B107D9F721E0A0E449
:1000E000B1E001C01D92AA3FB207E1F710E0CDE5F3
:1000F000D0E004C02197FE010E94EB0ACC35D10765
:10010000C9F70E945E040C94F80A0C9400008091D8
:10011000490190914A01019690934A0180934901C7
:1001200008950895AF92BF92CF92DF92EF92FF921F
:100130000F931F93CF93DF936C017B018B01040F0F
:10014000151FEB015E01AE18BF08C017D10759F0AB
:100150006991D601ED91FC910190F081E02DC601ED
:100160000995892B79F7C501DF91CF911F910F91E7
:10017000FF90EF90DF90CF90BF90AF900895FC017B
:10018000538D448D252F30E0842F90E0821B930BFC
:10019000541710F0CF96089501970895FC01918DA2
:1001A000828D981761F0A28DAE0FBF2FB11D5D96A5
:1001B0008C91928D9F5F9F73928F90E008958FEF47
:1001C0009FEF0895FC01918D828D981731F0828DFB
:1001D000E80FF11D858D90E008958FEF9FEF089552
:1001E000FC01918D228D892F90E0805C9F4F821BB6
:1001F00091098F73992708958DE591E00E94F00091
:1002000021E0892B09F420E0822F089580E090E01E
:10021000892B29F00E94FC0081110C9400000895A4
:10022000FC01A48DA80FB92FB11DA35ABF4F2C916B
:10023000848D90E001968F739927848FA689B78962
:100240002C93A089B1898C91837080648C93938D59
:10025000848D981306C00288F389E02D80818F7DFC
:1002600080830895EF92FF920F931F93CF93DF93B4
:10027000EC0181E0888F9B8D8C8D98131AC0E889E2
:10028000F989808185FF15C09FB7F894EE89FF89B1
:100290006083E889F98980818370806480839FBF4F
:1002A00081E090E0DF91CF911F910F91FF90EF904F
:1002B0000895F62E0B8D10E00F5F1F4F0F7311275F
:1002C000E02E8C8D8E110CC00FB607FCFACFE8899A
:1002D000F989808185FFF5CFCE010E941001F1CF11
:1002E000EB8DEC0FFD2FF11DE35AFF4FF0829FB70E
:1002F000F8940B8FEA89FB8980818062CFCFCF93FE
:10030000DF93EC01888D8823B9F0AA89BB89E8893D
:10031000F9898C9185FD03C0808186FD0DC00FB6E3
:1003200007FCF7CF8C9185FFF2CF808185FFEDCF61
:10033000CE010E941001E9CFDF91CF91089590E0A6
:10034000FC01EC55FF4F2491FC01E057FF4F349125
:10035000FC01E458FF4FE491EE23C9F0222339F069
:10036000233001F1A8F4213019F1223029F1F0E015
:10037000EE0FFF1FEE58FF4FA591B4918FB7F89481
:10038000EC91611126C030953E233C938FBF0895B8
:100390002730A9F02830C9F0243049F78091800037
:1003A0008F7D03C0809180008F7780938000DFCFA6
:1003B00084B58F7784BDDBCF84B58F7DFBCF8091F3
:1003C000B0008F778093B000D2CF8091B0008F7D46
:1003D000F9CF3E2BDACFCF93DF9390E0FC01E057CB
:1003E000FF4F249184589F4FFC0184918823D1F0C2
:1003F00090E0880F991FFC01E859FF4FA591B49137
:10040000FC01EE58FF4FC591D49161110EC09FB70A
:10041000F8948C91E22FE0958E238C932881E2232F
:10042000E8839FBFDF91CF9108958FB7F894EC9147
:10043000E22BEC938FBFF6CF3FB7F8948091450144
:1004400090914601A0914701B091480126B5A89B23
:1004500005C02F3F19F00196A11DB11D3FBFBA2F56
:10046000A92F982F8827BC01CD01620F711D811D16
:10047000911D42E0660F771F881F991F4A95D1F79B
:100480000895FC0101900020E9F73197AF01481B66
:10049000590BBC018DE591E00C9492008F929F92D4
:1004A000AF92BF920F931F93CF93DF93CDB7DEB779
:1004B000A1970FB6F894DEBF0FBECDBF19A2423090
:1004C00008F44AE08E010F5D1F4F842E912CB12C51
:1004D000A12CA50194010E947708E62FB901CA0159
:1004E000EA30F4F4E05DD801EE938D01232B242B48
:1004F000252B79F790E080E0109719F0CD010E944C
:100500004102A1960FB6F894DEBF0FBECDBFDF91BA
:10051000CF911F910F91BF90AF909F908F900895B2
:10052000E95CE1CF4F925F926F927F928F929F92A0
:10053000AF92BF92CF92DF92EF92FF920F931F93F1
:10054000CF936B017C01742EAC019B010E94E60AE3
:10055000882399F086E191E0CF911F910F91FF9050
:10056000EF90DF90CF90BF90AF909F908F907F9053
:100570006F905F904F900C94410246015701E894B0
:10058000B7F82FEF3FEF4FE75FE7C501B4010E94D7
:10059000E60A81110DC02FEF3FEF4FE75FE7C5017E
:1005A000B4010E94150918161CF48AE191E0D4CF19
:1005B0002FEF3FEF4FE75FE4C701B6010E94740AD7
:1005C00018161CF48EE191E0C7CF2FEF3FEF4FE7F5
:1005D0005FECC701B6010E94150987FDF3CF20E04B
:1005E00030E0A901C701B6010E94150910E000E042
:1005F00087FF0AC06DE28DE591E00E9432018C0117
:10060000F7FAF094F7F8F094C0E060E070E080E072
:100610009FE37C1641F020E030E040E251E40E948C
:100620001A09CF5FF6CFA70196010E94A9082B01F6
:100630003C010E9493094B015C014AE00E944E027A
:100640007C01E00EF11ECC23C1F1C501B4010E9472
:10065000C2099B01AC01C301B2010E94A8084B0171
:100660005C016EE28DE591E00E943201E80EF91E18
:10067000C15018F120E030E040E251E4C501B4017E
:100680000E94790A2B013C010E9493094B01B12C75
:10069000A12C4AE0C501B4010E944E02E80EF91EE9
:1006A000C501B4010E94C2099B01AC01C301B201A2
:1006B0000E94A8084B015C01DBCFC701CF911F91BD
:1006C0000F91FF90EF90DF90CF90BF90AF909F90F1
:1006D0008F907F906F905F904F9008951F920F9230
:1006E0000FB60F9211242F933F934F935F936F9305
:1006F0007F938F939F93AF93BF93EF93FF938DE57A
:1007000091E00E941001FF91EF91BF91AF919F91F5
:100710008F917F916F915F914F913F912F910F90AA
:100720000FBE0F901F9018951F920F920FB60F9249
:1007300011242F938F939F93EF93FF93E0916D017B
:10074000F0916E018081E0917301F091740182FD5E
:100750001BC09081809176018F5F8F73209177010C
:10076000821741F0E0917601F0E0E35AFE4F958F59
:1007700080937601FF91EF919F918F912F910F9030
:100780000FBE0F901F9018958081F4CF1F920F928B
:100790000FB60F9211242F933F938F939F93AF9394
:1007A000BF938091410190914201A0914301B0918A
:1007B00044013091400123E0230F2D3758F5019675
:1007C000A11DB11D209340018093410190934201EE
:1007D000A0934301B093440180914501909146015B
:1007E000A0914701B09148010196A11DB11D8093D0
:1007F000450190934601A0934701B0934801BF91F2
:10080000AF919F918F913F912F910F900FBE0F90BD
:100810001F90189526E8230F0296A11DB11DD2CF77
:100820001F920F920FB60F9211242F933F934F9365
:100830005F936F937F938F939F93AF93BF93EF9348
:10084000FF93E0910201F09103010995FF91EF916F
:10085000BF91AF919F918F917F916F915F914F91D8
:100860003F912F910F900FBE0F901F9018951F92E0
:100870000F920FB60F9211242F933F934F935F93D4
:100880006F937F938F939F93AF93BF93EF93FF9358
:10089000E0910001F09101010995FF91EF91BF9165
:1008A000AF919F918F917F916F915F914F913F9108
:1008B0002F910F900FBE0F901F901895789484B5CC
:1008C000826084BD84B5816084BD85B5826085BD4C
:1008D00085B5816085BD80916E00816080936E00DA
:1008E00010928100809181008260809381008091CC
:1008F000810081608093810080918000816080937D
:1009000080008091B10084608093B1008091B0003C
:1009100081608093B00080917A00846080937A0037
:1009200080917A00826080937A0080917A00816061
:1009300080937A0080917A00806880937A00109288
:10094000C10060E08EE00E94EB0161E083E00E9464
:10095000EB0161E084E00E94EB0161E085E00E9430
:10096000EB0161E086E00E94EB0161E087E00E941C
:10097000EB0161E088E00E94EB0161E089E00E9408
:10098000EB0161E08AE00E94EB0161E08BE00E94F4
:10099000EB0161E08CE00E94EB0161E08DE00E94E0
:1009A000EB0161E081E10E94EB0161E082E10E94E4
:1009B000EB01E0916D01F0916E0182E08083E091A6
:1009C0006901F0916A011082E0916B01F0916C0174
:1009D0008FEC808310927501E0917101F0917201AA
:1009E00086E08083E0916F01F091700180818061E9
:1009F0008083E0916F01F091700180818860808335
:100A0000E0916F01F0917001808180688083E091B6
:100A10006F01F091700180818F7D8083C0E491E946
:100A2000292E90E0392ED8E700E010E0812C912C9F
:100A300028ECA22E22E4B22EC0937C0080917A0092
:100A4000806480937A0080917A0086FDFCCFA0912B
:100A5000780080917900B82F24E630E00E94F10AF6
:100A60002FEF33E040E050E00E945808CA01B9017E
:100A70000E94C40960934F0170935001809351010B
:100A80009093520110924A0110924901109258011C
:100A90001092570187E890E0909301018093000144
:100AA00080916900836080936900E89A0E941C022B
:100AB0002B013C0184EFC82EDD24D394E12CF12CD2
:100AC0000E941C026419750986099709683E7340E3
:100AD00081059105A8F391E0C91AD108E108F10850
:100AE000A8EE4A0EA3E05A1E611C711CC114D10469
:100AF000E104F10429F7E898309201012092000105
:100B00008091490190914A01D89FB001D99F700D01
:100B100011247093580160935701072E000C880B25
:100B2000990B0E94C40924EA30E74DE75FE30E9475
:100B3000790A9B01AC010E94A90829EA33E140ED42
:100B40005EE30E94790A2CED3FE049E450E40E9404
:100B5000790A27ED33EA40EF5EE30E94790A2CE53B
:100B60003FE842E85FE30E94790A26E636E646E679
:100B700050E40E94790A20E030E040E752E40E940D
:100B80001A09609353017093540180935501909317
:100B900056016091590170915A0180915B019091C9
:100BA0005C010E948C096B01CB0177FF1DC061E0E5
:100BB00081E10E949F0160E082E10E949F01F601B5
:100BC0003596EB30F10508F037C2E751FA4F0C9437
:100BD000EB0A1D0623062D063B064D06030663069B
:100BE0008106A306C906F30660E0892B29F081E19E
:100BF0000E949F0161E0E0CF81E10E949F0160E0DF
:100C000082E10E949F0160E083E00E949F0160E01A
:100C100084E00E949F0160E085E00E949F0160E007
:100C200086E00E949F0160E087E00E949F0161E0F2
:100C300088E00E949F0160E05FC061E083E00E9465
:100C40009F0160E005C060E083E00E949F0161E0D9
:100C500084E00E949F0160E009C060E083E00E94A0
:100C60009F0160E084E00E949F0161E085E00E94B6
:100C70009F0160E00DC060E083E00E949F0160E0A2
:100C800084E00E949F0160E085E00E949F0161E096
:100C900086E00E949F0160E011C060E083E00E9456
:100CA0009F0160E084E00E949F0160E085E00E9477
:100CB0009F0160E086E00E949F0161E087E00E9462
:100CC0009F0160E0B5CF60E083E00E949F0160E09B
:100CD00084E00E949F0160E085E00E949F0160E047
:100CE00086E00E949F0160E087E00E949F0160E033
:100CF00088E00E949F0161E089E00E949F0160E01E
:100D00001DC060E083E00E949F0160E084E00E94DB
:100D10009F0160E085E00E949F0160E086E00E9404
:100D20009F0160E087E00E949F0160E088E00E94F0
:100D30009F0160E089E00E949F0161E08AE00E94DB
:100D40009F0160E021C060E083E00E949F0160E0BD
:100D500084E00E949F0160E085E00E949F0160E0C6
:100D600086E00E949F0160E087E00E949F0160E0B2
:100D700088E00E949F0160E089E00E949F0160E09E
:100D80008AE00E949F0161E08BE00E949F0160E089
:100D900025C060E083E00E949F0160E084E00E9443
:100DA0009F0160E085E00E949F0160E086E00E9474
:100DB0009F0160E087E00E949F0160E088E00E9460
:100DC0009F0160E089E00E949F0160E08AE00E944C
:100DD0009F0160E08BE00E949F0161E08CE00E9437
:100DE0009F0160E029C060E083E00E949F0160E015
:100DF00084E00E949F0160E085E00E949F0160E026
:100E000086E00E949F0160E087E00E949F0160E011
:100E100088E00E949F0160E089E00E949F0160E0FD
:100E20008AE00E949F0160E08BE00E949F0160E0E9
:100E30008CE00E949F0161E08DE00E949F01C090C4
:100E40005901D0905A01E0905B01F0905C0120E0E4
:100E500030E040EA50E4C701B6010E94740A181657
:100E600024F461E08DE00E949F0120E030E040EA40
:100E700050ECC701B6010E94150987FF04C061E06C
:100E800083E00E949F0120E030E040ED51E460915A
:100E900053017091540180915501909156010E9427
:100EA000150918160CF4CAC06091570170915801C9
:100EB000072E000C880B990B0E94C4096B017C0162
:100EC0002DEC3CE045EA53E40E94150987FF2AC057
:100ED00022E03BE247E85EE3C701B6010E94790ADF
:100EE00023EC35EF48E650E40E94A9082B013C01B1
:100EF0002EE036ED44EA58E3C701B6010E94790AB4
:100F0000A70196010E94790A9B01AC01C301B201BD
:100F10000E94A90860934B0170934C0180934D018E
:100F200090934E012DEC3CE045EA53E4C701B60135
:100F30000E94740A87FD08C080924B0190924C0178
:100F4000A0924D01B0924E0120914B0130914C0185
:100F500040914D0150914E0160914F0170915001AF
:100F600080915101909152010E94A8080E948C0921
:100F7000072E000C880B990B0E94C409609359013D
:100F800070935A0180935B0190935C0182E291E03F
:100F90000E9441026091590170915A0180915B0158
:100FA00090915C0142E00E9492028CE291E00E94EA
:100FB00041028FE291E00E944102C0905701D0901F
:100FC00058010D2C000CEE08FF084AE0C701B601DD
:100FD000F7FE0DC06DE28DE591E00E9432016627BB
:100FE0007727CB016C197D098E099F094AE00E9481
:100FF0004E028CE291E00E94410284E391E00E9463
:10100000410260915301709154018091550190917A
:10101000560142E00E9492028CE291E00E9441025D
:101020000115110509F408CD0E94FC00882309F47C
:1010300003CD0E94000000CD60E000CE86E696E67B
:10104000AEEBB2E480934B0190934C01A0934D0121
:10105000B0934E0179CFEDE5F1E01382128288EE74
:1010600093E0A0E0B0E084839583A683B78388E013
:1010700091E09183808385EC90E09587848784EC70
:1010800090E09787868780EC90E0918B808B81EC55
:1010900090E0938B828B82EC90E0958B848B86EC36
:1010A00090E0978B868B118E128E138E148E08957E
:1010B000052E97FB1EF400940E946F0857FD07D081
:1010C0000E94770807FC03D04EF40C946F085095EB
:1010D0004095309521953F4F4F4F5F4F0895909524
:1010E0008095709561957F4F8F4F9F4F0895A1E236
:1010F0001A2EAA1BBB1BFD010DC0AA1FBB1FEE1F92
:10110000FF1FA217B307E407F50720F0A21BB30BDC
:10111000E40BF50B661F771F881F991F1A9469F758
:1011200060957095809590959B01AC01BD01CF01B4
:101130000895A29FB001B39FC001A39F700D811DB0
:101140001124911DB29F700D811D1124911D0895D0
:101150005058BB27AA270E94C0080C943A0A0E9444
:101160002C0A38F00E94330A20F039F49F3F19F41A
:1011700026F40C94290A0EF4E095E7FB0C94230A5C
:10118000E92F0E944B0A58F3BA17620773078407C6
:10119000950720F079F4A6F50C946D0A0EF4E0950D
:1011A0000B2EBA2FA02D0B01B90190010C01CA0121
:1011B000A0011124FF27591B99F0593F50F4503ECC
:1011C00068F11A16F040A22F232F342F4427585FBE
:1011D000F3CF469537952795A795F0405395C9F7D6
:1011E0007EF41F16BA0B620B730B840BBAF091508E
:1011F000A1F0FF0FBB1F661F771F881FC2F70EC02D
:10120000BA0F621F731F841F48F4879577956795FF
:10121000B795F7959E3F08F0B0CF9395880F08F0EB
:101220009927EE0F9795879508950E94FF0908F476
:1012300081E008950E942E090C943A0A0E94330A14
:1012400058F00E942C0A40F029F45F3F29F00C94DA
:10125000230A51110C946E0A0C94290A0E944B0A1D
:1012600068F39923B1F3552391F3951B550BBB27D5
:10127000AA2762177307840738F09F5F5F4F220F1A
:10128000331F441FAA1FA9F335D00E2E3AF0E0E811
:1012900032D091505040E695001CCAF72BD0FE2F5B
:1012A00029D0660F771F881FBB1F261737074807EF
:1012B000AB07B0E809F0BB0B802DBF01FF279358A7
:1012C0005F4F3AF09E3F510578F00C94230A0C943E
:1012D0006E0A5F3FE4F3983ED4F386957795679561
:1012E000B795F7959F5FC9F7880F911D96958795DC
:1012F00097F90895E1E0660F771F881FBB1F6217FB
:1013000073078407BA0720F0621B730B840BBA0BB8
:10131000EE1F88F7E09508950E9493096894B11133
:101320000C946E0A08950E94530A88F09F5798F013
:10133000B92F9927B751B0F0E1F0660F771F881FDA
:10134000991F1AF0BA95C9F714C0B13091F00E94F4
:101350006D0AB1E008950C946D0A672F782F8827E5
:10136000B85F39F0B93FCCF3869577956795B3951B
:10137000D9F73EF490958095709561957F4F8F4F8A
:101380009F4F0895E89409C097FB3EF4909580958F
:10139000709561957F4F8F4F9F4F9923A9F0F92F3B
:1013A00096E9BB279395F695879577956795B795B9
:1013B000F111F8CFFAF4BB0F11F460FF1BC06F5F9F
:1013C0007F4F8F4F9F4F16C0882311F096E911C0B1
:1013D000772321F09EE8872F762F05C0662371F0D2
:1013E00096E8862F70E060E02AF09A95660F771FE6
:1013F000881FDAF7880F9695879597F90895990FC2
:101400000008550FAA0BE0E8FEEF16161706E807CE
:10141000F907C0F012161306E407F50798F0621BEF
:10142000730B840B950B39F40A2661F0232B242BC4
:10143000252B21F408950A2609F4A140A6958FEFE3
:10144000811D811D089597F99F6780E870E060E035
:1014500008959FEF80EC089500240A94161617064D
:1014600018060906089500240A9412161306140695
:1014700005060895092E0394000C11F4882352F0F8
:10148000BB0F40F4BF2B11F460FF04C06F5F7F4FB0
:101490008F4F9F4F089557FD9058440F551F59F097
:1014A0005F3F71F04795880F97FB991F61F09F3F51
:1014B00079F087950895121613061406551FF2CF7A
:1014C0004695F1DF08C0161617061806991FF1CFCA
:1014D00086957105610508940895E894BB276627F1
:1014E0007727CB0197F908950E94FF0908F48FEF41
:1014F00008950E948C0A0C943A0A0E942C0A38F033
:101500000E94330A20F0952311F00C94230A0C94C6
:10151000290A11240C946E0A0E944B0A70F3959FBD
:10152000C1F3950F50E0551F629FF001729FBB27DA
:10153000F00DB11D639FAA27F00DB11DAA1F649F76
:101540006627B00DA11D661F829F2227B00DA11D29
:10155000621F739FB00DA11D621F839FA00D611DAF
:10156000221F749F3327A00D611D231F849F600DD0
:10157000211D822F762F6A2F11249F5750409AF0F9
:10158000F1F088234AF0EE0FFF1FBB1F661F771F85
:10159000881F91505040A9F79E3F510580F00C9450
:1015A000230A0C946E0A5F3FE4F3983ED4F38695C9
:1015B00077956795B795F795E7959F5FC1F7FE2BF0
:1015C000880F911D9695879597F908950E94FF09B8
:1015D000880B990B0895EE0FFF1F0590F491E02DF5
:1015E00009940E949908B7FF0895821B930B0895F0
:0415F000F894FFCF9D
:1015F400910091000000000032019200BF007F01C1
:10160400F000CE00E2006E616E00696E66006F76D7
:10161400660074685F636F6D70253A000D0A0052AE
:10162400504D3A007370656564206B6D2F683A0005
:00000001FF
